{"contracts/Raffle.sol":{"Raffle":{"abi":[{"inputs":[{"internalType":"address","name":"vrfCoordinatorV2","type":"address"},{"internalType":"uint256","name":"entranceFee","type":"uint256"},{"internalType":"bytes32","name":"gasLane","type":"bytes32"},{"internalType":"uint64","name":"subscriptionId","type":"uint64"},{"internalType":"uint16","name":"callbackGasLimit","type":"uint16"},{"internalType":"uint256","name":"interval","type":"uint256"}],"stateMutability":"nonpayable","type":"constructor"},{"inputs":[{"internalType":"address","name":"have","type":"address"},{"internalType":"address","name":"want","type":"address"}],"name":"OnlyCoordinatorCanFulfill","type":"error"},{"inputs":[],"name":"Raffle_NotEnoughETHEntered","type":"error"},{"inputs":[],"name":"Raffle_NotOpen","type":"error"},{"inputs":[],"name":"Raffle_TransferFailed","type":"error"},{"inputs":[{"internalType":"uint256","name":"currentBalance","type":"uint256"},{"internalType":"uint256","name":"numberPalyers","type":"uint256"},{"internalType":"uint256","name":"raffleState","type":"uint256"}],"name":"Raffle_UpKeepNotNeeded","type":"error"},{"anonymous":false,"inputs":[{"indexed":true,"internalType":"address","name":"player","type":"address"}],"name":"RaffleEnter","type":"event"},{"anonymous":false,"inputs":[{"indexed":true,"internalType":"uint256","name":"requestId","type":"uint256"}],"name":"RequestRaffleWinner","type":"event"},{"anonymous":false,"inputs":[{"indexed":true,"internalType":"address","name":"winner","type":"address"}],"name":"WinnerPicked","type":"event"},{"inputs":[{"internalType":"bytes","name":"","type":"bytes"}],"name":"checkUpkeep","outputs":[{"internalType":"bool","name":"upkeepNeeded","type":"bool"},{"internalType":"bytes","name":"","type":"bytes"}],"stateMutability":"view","type":"function"},{"inputs":[],"name":"enterRaffle","outputs":[],"stateMutability":"payable","type":"function"},{"inputs":[],"name":"getEntranceFee","outputs":[{"internalType":"uint256","name":"","type":"uint256"}],"stateMutability":"view","type":"function"},{"inputs":[],"name":"getInterval","outputs":[{"internalType":"uint256","name":"","type":"uint256"}],"stateMutability":"view","type":"function"},{"inputs":[],"name":"getNumbers","outputs":[{"internalType":"uint256","name":"","type":"uint256"}],"stateMutability":"pure","type":"function"},{"inputs":[{"internalType":"uint256","name":"index","type":"uint256"}],"name":"getPlayer","outputs":[{"internalType":"address","name":"","type":"address"}],"stateMutability":"view","type":"function"},{"inputs":[],"name":"getRaffleState","outputs":[{"internalType":"enum Raffle.RaffleState","name":"","type":"uint8"}],"stateMutability":"view","type":"function"},{"inputs":[],"name":"getRecentWinner","outputs":[{"internalType":"address","name":"","type":"address"}],"stateMutability":"view","type":"function"},{"inputs":[{"internalType":"bytes","name":"","type":"bytes"}],"name":"performUpkeep","outputs":[],"stateMutability":"nonpayable","type":"function"},{"inputs":[{"internalType":"uint256","name":"requestId","type":"uint256"},{"internalType":"uint256[]","name":"randomWords","type":"uint256[]"}],"name":"rawFulfillRandomWords","outputs":[],"stateMutability":"nonpayable","type":"function"}],"devdoc":{"kind":"dev","methods":{},"version":1},"evm":{"bytecode":{"linkReferences":{},"object":"6101606040523480156200001257600080fd5b5060405162001861380380620018618339818101604052810190620000389190620001cd565b858073ffffffffffffffffffffffffffffffffffffffff1660808173ffffffffffffffffffffffffffffffffffffffff1660601b81525050508460a081815250508573ffffffffffffffffffffffffffffffffffffffff1660c08173ffffffffffffffffffffffffffffffffffffffff1660601b815250508360e081815250508267ffffffffffffffff166101008167ffffffffffffffff1660c01b815250508161ffff166101208161ffff1660f01b815250506000600160146101000a81548160ff0219169083600181111562000139577f4e487b7100000000000000000000000000000000000000000000000000000000600052602160045260246000fd5b0217905550426002819055508061014081815250505050505050506200034f565b6000815190506200016b81620002cd565b92915050565b6000815190506200018281620002e7565b92915050565b600081519050620001998162000301565b92915050565b600081519050620001b0816200031b565b92915050565b600081519050620001c78162000335565b92915050565b60008060008060008060c08789031215620001e757600080fd5b6000620001f789828a016200015a565b96505060206200020a89828a016200019f565b95505060406200021d89828a0162000171565b94505060606200023089828a01620001b6565b93505060806200024389828a0162000188565b92505060a06200025689828a016200019f565b9150509295509295509295565b600062000270826200028f565b9050919050565b6000819050919050565b600061ffff82169050919050565b600073ffffffffffffffffffffffffffffffffffffffff82169050919050565b6000819050919050565b600067ffffffffffffffff82169050919050565b620002d88162000263565b8114620002e457600080fd5b50565b620002f28162000277565b8114620002fe57600080fd5b50565b6200030c8162000281565b81146200031857600080fd5b50565b6200032681620002af565b81146200033257600080fd5b50565b6200034081620002b9565b81146200034c57600080fd5b50565b60805160601c60a05160c05160601c60e0516101005160c01c6101205160f01c61014051611496620003cb60003960008181610802015261087d015260006106810152600061065e0152600061063d01526000610601015260008181610248015261034501526000818161028501526102d901526114966000f3fe6080604052600436106100915760003560e01c8063473f1ddc11610059578063473f1ddc146101485780636e04ff0d1461017357806389f915f6146101b157806391ad27b4146101dc578063e55ae4e81461020757610091565b806309bc33a714610096578063115cbaf5146100c15780631fe543e3146100ec5780632cfcc539146101155780634585e33b1461011f575b600080fd5b3480156100a257600080fd5b506100ab610244565b6040516100b891906110e7565b60405180910390f35b3480156100cd57600080fd5b506100d661026c565b6040516100e391906110cc565b60405180910390f35b3480156100f857600080fd5b50610113600480360381019061010e9190610ec8565b610283565b005b61011d610343565b005b34801561012b57600080fd5b5061014660048036038101906101419190610df0565b6104fe565b005b34801561015457600080fd5b5061015d610749565b60405161016a9190611005565b60405180910390f35b34801561017f57600080fd5b5061019a60048036038101906101959190610e35565b610773565b6040516101a8929190611049565b60405180910390f35b3480156101bd57600080fd5b506101c661086c565b6040516101d391906110e7565b60405180910390f35b3480156101e857600080fd5b506101f1610879565b6040516101fe91906110e7565b60405180910390f35b34801561021357600080fd5b5061022e60048036038101906102299190610e76565b6108a1565b60405161023b9190611005565b60405180910390f35b60007f0000000000000000000000000000000000000000000000000000000000000000905090565b6000600160149054906101000a900460ff16905090565b7f000000000000000000000000000000000000000000000000000000000000000073ffffffffffffffffffffffffffffffffffffffff163373ffffffffffffffffffffffffffffffffffffffff161461033557337f00000000000000000000000000000000000000000000000000000000000000006040517f1cf993f400000000000000000000000000000000000000000000000000000000815260040161032c929190611020565b60405180910390fd5b61033f828261090e565b5050565b7f000000000000000000000000000000000000000000000000000000000000000034101561039d576040517f74938f2700000000000000000000000000000000000000000000000000000000815260040160405180910390fd5b600060018111156103d7577f4e487b7100000000000000000000000000000000000000000000000000000000600052602160045260246000fd5b600160149054906101000a900460ff16600181111561041f577f4e487b7100000000000000000000000000000000000000000000000000000000600052602160045260246000fd5b14610456576040517fd6e19a8d00000000000000000000000000000000000000000000000000000000815260040160405180910390fd5b6000339080600181540180825580915050600190039060005260206000200160009091909190916101000a81548173ffffffffffffffffffffffffffffffffffffffff021916908373ffffffffffffffffffffffffffffffffffffffff1602179055503373ffffffffffffffffffffffffffffffffffffffff167f0805e1d667bddb8a95f0f09880cf94f403fb596ce79928d9f29b74203ba284d460405160405180910390a2565b600061051860405180602001604052806000815250610773565b509050806105ad5747600080549050600160149054906101000a900460ff16600181111561056f577f4e487b7100000000000000000000000000000000000000000000000000000000600052602160045260246000fd5b6040517fc61de3e10000000000000000000000000000000000000000000000000000000081526004016105a493929190611102565b60405180910390fd5b60018060146101000a81548160ff021916908360018111156105f8577f4e487b7100000000000000000000000000000000000000000000000000000000600052602160045260246000fd5b021790555060007f000000000000000000000000000000000000000000000000000000000000000073ffffffffffffffffffffffffffffffffffffffff16635d3b1d307f00000000000000000000000000000000000000000000000000000000000000007f000000000000000000000000000000000000000000000000000000000000000060037f000000000000000000000000000000000000000000000000000000000000000060016040518663ffffffff1660e01b81526004016106c2959493929190611079565b602060405180830381600087803b1580156106dc57600080fd5b505af11580156106f0573d6000803e3d6000fd5b505050506040513d601f19601f820116820180604052508101906107149190610e9f565b9050807fde6349b018d6c03d837b67d9a198a6ba4842546f2295fe963fae141e5dbaef8160405160405180910390a250505050565b6000600160009054906101000a900473ffffffffffffffffffffffffffffffffffffffff16905090565b600060606000600160149054906101000a900460ff1660018111156107c1577f4e487b7100000000000000000000000000000000000000000000000000000000600052602160045260246000fd5b600060018111156107fb577f4e487b7100000000000000000000000000000000000000000000000000000000600052602160045260246000fd5b14905060007f00000000000000000000000000000000000000000000000000000000000000006002544261082f91906111e2565b1190506000806000805490501190506000804711905083801561084f5750825b80156108585750805b80156108615750815b955050505050915091565b6000600161ffff16905090565b60007f0000000000000000000000000000000000000000000000000000000000000000905090565b60008082815481106108dc577f4e487b7100000000000000000000000000000000000000000000000000000000600052603260045260246000fd5b9060005260206000200160009054906101000a900473ffffffffffffffffffffffffffffffffffffffff169050919050565b600080805490508260008151811061094f577f4e487b7100000000000000000000000000000000000000000000000000000000600052603260045260246000fd5b60200260200101516109619190611334565b9050600080828154811061099e577f4e487b7100000000000000000000000000000000000000000000000000000000600052603260045260246000fd5b9060005260206000200160009054906101000a900473ffffffffffffffffffffffffffffffffffffffff16905080600160006101000a81548173ffffffffffffffffffffffffffffffffffffffff021916908373ffffffffffffffffffffffffffffffffffffffff16021790555060008173ffffffffffffffffffffffffffffffffffffffff1647604051610a3290610ff0565b60006040518083038185875af1925050503d8060008114610a6f576040519150601f19603f3d011682016040523d82523d6000602084013e610a74565b606091505b5050905080610aaf576040517fba31c4f300000000000000000000000000000000000000000000000000000000815260040160405180910390fd5b8173ffffffffffffffffffffffffffffffffffffffff167f5b690ec4a06fe979403046eaeea5b3ce38524683c3001f662c8b5a829632f7df60405160405180910390a26000600160146101000a81548160ff02191690836001811115610b3e577f4e487b7100000000000000000000000000000000000000000000000000000000600052602160045260246000fd5b0217905550600067ffffffffffffffff811115610b84577f4e487b7100000000000000000000000000000000000000000000000000000000600052604160045260246000fd5b604051908082528060200260200182016040528015610bb25781602001602082028036833780820191505090505b5060009080519060200190610bc8929190610bd7565b50426002819055505050505050565b828054828255906000526020600020908101928215610c50579160200282015b82811115610c4f5782518260006101000a81548173ffffffffffffffffffffffffffffffffffffffff021916908373ffffffffffffffffffffffffffffffffffffffff16021790555091602001919060010190610bf7565b5b509050610c5d9190610c61565b5090565b5b80821115610c7a576000816000905550600101610c62565b5090565b6000610c91610c8c8461115e565b611139565b90508083825260208201905082856020860282011115610cb057600080fd5b60005b85811015610ce05781610cc68882610dc6565b845260208401935060208301925050600181019050610cb3565b5050509392505050565b6000610cfd610cf88461118a565b611139565b905082815260208101848484011115610d1557600080fd5b610d208482856112c1565b509392505050565b600082601f830112610d3957600080fd5b8135610d49848260208601610c7e565b91505092915050565b60008083601f840112610d6457600080fd5b8235905067ffffffffffffffff811115610d7d57600080fd5b602083019150836001820283011115610d9557600080fd5b9250929050565b600082601f830112610dad57600080fd5b8135610dbd848260208601610cea565b91505092915050565b600081359050610dd581611449565b92915050565b600081519050610dea81611449565b92915050565b60008060208385031215610e0357600080fd5b600083013567ffffffffffffffff811115610e1d57600080fd5b610e2985828601610d52565b92509250509250929050565b600060208284031215610e4757600080fd5b600082013567ffffffffffffffff811115610e6157600080fd5b610e6d84828501610d9c565b91505092915050565b600060208284031215610e8857600080fd5b6000610e9684828501610dc6565b91505092915050565b600060208284031215610eb157600080fd5b6000610ebf84828501610ddb565b91505092915050565b60008060408385031215610edb57600080fd5b6000610ee985828601610dc6565b925050602083013567ffffffffffffffff811115610f0657600080fd5b610f1285828601610d28565b9150509250929050565b610f2581611216565b82525050565b610f3481611228565b82525050565b610f4381611234565b82525050565b6000610f54826111bb565b610f5e81856111c6565b9350610f6e8185602086016112d0565b610f7781611421565b840191505092915050565b610f8b8161129d565b82525050565b6000610f9e6000836111d7565b9150610fa982611432565b600082019050919050565b610fbd81611251565b82525050565b610fcc816112af565b82525050565b610fdb8161127f565b82525050565b610fea81611289565b82525050565b6000610ffb82610f91565b9150819050919050565b600060208201905061101a6000830184610f1c565b92915050565b60006040820190506110356000830185610f1c565b6110426020830184610f1c565b9392505050565b600060408201905061105e6000830185610f2b565b81810360208301526110708184610f49565b90509392505050565b600060a08201905061108e6000830188610f3a565b61109b6020830187610fe1565b6110a86040830186610fb4565b6110b56060830185610fc3565b6110c26080830184610fc3565b9695505050505050565b60006020820190506110e16000830184610f82565b92915050565b60006020820190506110fc6000830184610fd2565b92915050565b60006060820190506111176000830186610fd2565b6111246020830185610fd2565b6111316040830184610fd2565b949350505050565b6000611143611154565b905061114f8282611303565b919050565b6000604051905090565b600067ffffffffffffffff821115611179576111786113f2565b5b602082029050602081019050919050565b600067ffffffffffffffff8211156111a5576111a46113f2565b5b6111ae82611421565b9050602081019050919050565b600081519050919050565b600082825260208201905092915050565b600081905092915050565b60006111ed8261127f565b91506111f88361127f565b92508282101561120b5761120a611365565b5b828203905092915050565b60006112218261125f565b9050919050565b60008115159050919050565b6000819050919050565b600081905061124c82611435565b919050565b600061ffff82169050919050565b600073ffffffffffffffffffffffffffffffffffffffff82169050919050565b6000819050919050565b600067ffffffffffffffff82169050919050565b60006112a88261123e565b9050919050565b60006112ba82611251565b9050919050565b82818337600083830152505050565b60005b838110156112ee5780820151818401526020810190506112d3565b838111156112fd576000848401525b50505050565b61130c82611421565b810181811067ffffffffffffffff8211171561132b5761132a6113f2565b5b80604052505050565b600061133f8261127f565b915061134a8361127f565b92508261135a57611359611394565b5b828206905092915050565b7f4e487b7100000000000000000000000000000000000000000000000000000000600052601160045260246000fd5b7f4e487b7100000000000000000000000000000000000000000000000000000000600052601260045260246000fd5b7f4e487b7100000000000000000000000000000000000000000000000000000000600052602160045260246000fd5b7f4e487b7100000000000000000000000000000000000000000000000000000000600052604160045260246000fd5b6000601f19601f8301169050919050565b50565b60028110611446576114456113c3565b5b50565b6114528161127f565b811461145d57600080fd5b5056fea2646970667358221220c65eec3bebb6ae115161e6b43860f7e5f67c32e8c2c64a0c4e9d08a9fe2fed8164736f6c63430008040033","opcodes":"PUSH2 0x160 PUSH1 0x40 MSTORE CALLVALUE DUP1 ISZERO PUSH3 0x12 JUMPI PUSH1 0x0 DUP1 REVERT JUMPDEST POP PUSH1 0x40 MLOAD PUSH3 0x1861 CODESIZE SUB DUP1 PUSH3 0x1861 DUP4 CODECOPY DUP2 DUP2 ADD PUSH1 0x40 MSTORE DUP2 ADD SWAP1 PUSH3 0x38 SWAP2 SWAP1 PUSH3 0x1CD JUMP JUMPDEST DUP6 DUP1 PUSH20 0xFFFFFFFFFFFFFFFFFFFFFFFFFFFFFFFFFFFFFFFF AND PUSH1 0x80 DUP2 PUSH20 0xFFFFFFFFFFFFFFFFFFFFFFFFFFFFFFFFFFFFFFFF AND PUSH1 0x60 SHL DUP2 MSTORE POP POP POP DUP5 PUSH1 0xA0 DUP2 DUP2 MSTORE POP POP DUP6 PUSH20 0xFFFFFFFFFFFFFFFFFFFFFFFFFFFFFFFFFFFFFFFF AND PUSH1 0xC0 DUP2 PUSH20 0xFFFFFFFFFFFFFFFFFFFFFFFFFFFFFFFFFFFFFFFF AND PUSH1 0x60 SHL DUP2 MSTORE POP POP DUP4 PUSH1 0xE0 DUP2 DUP2 MSTORE POP POP DUP3 PUSH8 0xFFFFFFFFFFFFFFFF AND PUSH2 0x100 DUP2 PUSH8 0xFFFFFFFFFFFFFFFF AND PUSH1 0xC0 SHL DUP2 MSTORE POP POP DUP2 PUSH2 0xFFFF AND PUSH2 0x120 DUP2 PUSH2 0xFFFF AND PUSH1 0xF0 SHL DUP2 MSTORE POP POP PUSH1 0x0 PUSH1 0x1 PUSH1 0x14 PUSH2 0x100 EXP DUP2 SLOAD DUP2 PUSH1 0xFF MUL NOT AND SWAP1 DUP4 PUSH1 0x1 DUP2 GT ISZERO PUSH3 0x139 JUMPI PUSH32 0x4E487B7100000000000000000000000000000000000000000000000000000000 PUSH1 0x0 MSTORE PUSH1 0x21 PUSH1 0x4 MSTORE PUSH1 0x24 PUSH1 0x0 REVERT JUMPDEST MUL OR SWAP1 SSTORE POP TIMESTAMP PUSH1 0x2 DUP2 SWAP1 SSTORE POP DUP1 PUSH2 0x140 DUP2 DUP2 MSTORE POP POP POP POP POP POP POP POP PUSH3 0x34F JUMP JUMPDEST PUSH1 0x0 DUP2 MLOAD SWAP1 POP PUSH3 0x16B DUP2 PUSH3 0x2CD JUMP JUMPDEST SWAP3 SWAP2 POP POP JUMP JUMPDEST PUSH1 0x0 DUP2 MLOAD SWAP1 POP PUSH3 0x182 DUP2 PUSH3 0x2E7 JUMP JUMPDEST SWAP3 SWAP2 POP POP JUMP JUMPDEST PUSH1 0x0 DUP2 MLOAD SWAP1 POP PUSH3 0x199 DUP2 PUSH3 0x301 JUMP JUMPDEST SWAP3 SWAP2 POP POP JUMP JUMPDEST PUSH1 0x0 DUP2 MLOAD SWAP1 POP PUSH3 0x1B0 DUP2 PUSH3 0x31B JUMP JUMPDEST SWAP3 SWAP2 POP POP JUMP JUMPDEST PUSH1 0x0 DUP2 MLOAD SWAP1 POP PUSH3 0x1C7 DUP2 PUSH3 0x335 JUMP JUMPDEST SWAP3 SWAP2 POP POP JUMP JUMPDEST PUSH1 0x0 DUP1 PUSH1 0x0 DUP1 PUSH1 0x0 DUP1 PUSH1 0xC0 DUP8 DUP10 SUB SLT ISZERO PUSH3 0x1E7 JUMPI PUSH1 0x0 DUP1 REVERT JUMPDEST PUSH1 0x0 PUSH3 0x1F7 DUP10 DUP3 DUP11 ADD PUSH3 0x15A JUMP JUMPDEST SWAP7 POP POP PUSH1 0x20 PUSH3 0x20A DUP10 DUP3 DUP11 ADD PUSH3 0x19F JUMP JUMPDEST SWAP6 POP POP PUSH1 0x40 PUSH3 0x21D DUP10 DUP3 DUP11 ADD PUSH3 0x171 JUMP JUMPDEST SWAP5 POP POP PUSH1 0x60 PUSH3 0x230 DUP10 DUP3 DUP11 ADD PUSH3 0x1B6 JUMP JUMPDEST SWAP4 POP POP PUSH1 0x80 PUSH3 0x243 DUP10 DUP3 DUP11 ADD PUSH3 0x188 JUMP JUMPDEST SWAP3 POP POP PUSH1 0xA0 PUSH3 0x256 DUP10 DUP3 DUP11 ADD PUSH3 0x19F JUMP JUMPDEST SWAP2 POP POP SWAP3 SWAP6 POP SWAP3 SWAP6 POP SWAP3 SWAP6 JUMP JUMPDEST PUSH1 0x0 PUSH3 0x270 DUP3 PUSH3 0x28F JUMP JUMPDEST SWAP1 POP SWAP2 SWAP1 POP JUMP JUMPDEST PUSH1 0x0 DUP2 SWAP1 POP SWAP2 SWAP1 POP JUMP JUMPDEST PUSH1 0x0 PUSH2 0xFFFF DUP3 AND SWAP1 POP SWAP2 SWAP1 POP JUMP JUMPDEST PUSH1 0x0 PUSH20 0xFFFFFFFFFFFFFFFFFFFFFFFFFFFFFFFFFFFFFFFF DUP3 AND SWAP1 POP SWAP2 SWAP1 POP JUMP JUMPDEST PUSH1 0x0 DUP2 SWAP1 POP SWAP2 SWAP1 POP JUMP JUMPDEST PUSH1 0x0 PUSH8 0xFFFFFFFFFFFFFFFF DUP3 AND SWAP1 POP SWAP2 SWAP1 POP JUMP JUMPDEST PUSH3 0x2D8 DUP2 PUSH3 0x263 JUMP JUMPDEST DUP2 EQ PUSH3 0x2E4 JUMPI PUSH1 0x0 DUP1 REVERT JUMPDEST POP JUMP JUMPDEST PUSH3 0x2F2 DUP2 PUSH3 0x277 JUMP JUMPDEST DUP2 EQ PUSH3 0x2FE JUMPI PUSH1 0x0 DUP1 REVERT JUMPDEST POP JUMP JUMPDEST PUSH3 0x30C DUP2 PUSH3 0x281 JUMP JUMPDEST DUP2 EQ PUSH3 0x318 JUMPI PUSH1 0x0 DUP1 REVERT JUMPDEST POP JUMP JUMPDEST PUSH3 0x326 DUP2 PUSH3 0x2AF JUMP JUMPDEST DUP2 EQ PUSH3 0x332 JUMPI PUSH1 0x0 DUP1 REVERT JUMPDEST POP JUMP JUMPDEST PUSH3 0x340 DUP2 PUSH3 0x2B9 JUMP JUMPDEST DUP2 EQ PUSH3 0x34C JUMPI PUSH1 0x0 DUP1 REVERT JUMPDEST POP JUMP JUMPDEST PUSH1 0x80 MLOAD PUSH1 0x60 SHR PUSH1 0xA0 MLOAD PUSH1 0xC0 MLOAD PUSH1 0x60 SHR PUSH1 0xE0 MLOAD PUSH2 0x100 MLOAD PUSH1 0xC0 SHR PUSH2 0x120 MLOAD PUSH1 0xF0 SHR PUSH2 0x140 MLOAD PUSH2 0x1496 PUSH3 0x3CB PUSH1 0x0 CODECOPY PUSH1 0x0 DUP2 DUP2 PUSH2 0x802 ADD MSTORE PUSH2 0x87D ADD MSTORE PUSH1 0x0 PUSH2 0x681 ADD MSTORE PUSH1 0x0 PUSH2 0x65E ADD MSTORE PUSH1 0x0 PUSH2 0x63D ADD MSTORE PUSH1 0x0 PUSH2 0x601 ADD MSTORE PUSH1 0x0 DUP2 DUP2 PUSH2 0x248 ADD MSTORE PUSH2 0x345 ADD MSTORE PUSH1 0x0 DUP2 DUP2 PUSH2 0x285 ADD MSTORE PUSH2 0x2D9 ADD MSTORE PUSH2 0x1496 PUSH1 0x0 RETURN INVALID PUSH1 0x80 PUSH1 0x40 MSTORE PUSH1 0x4 CALLDATASIZE LT PUSH2 0x91 JUMPI PUSH1 0x0 CALLDATALOAD PUSH1 0xE0 SHR DUP1 PUSH4 0x473F1DDC GT PUSH2 0x59 JUMPI DUP1 PUSH4 0x473F1DDC EQ PUSH2 0x148 JUMPI DUP1 PUSH4 0x6E04FF0D EQ PUSH2 0x173 JUMPI DUP1 PUSH4 0x89F915F6 EQ PUSH2 0x1B1 JUMPI DUP1 PUSH4 0x91AD27B4 EQ PUSH2 0x1DC JUMPI DUP1 PUSH4 0xE55AE4E8 EQ PUSH2 0x207 JUMPI PUSH2 0x91 JUMP JUMPDEST DUP1 PUSH4 0x9BC33A7 EQ PUSH2 0x96 JUMPI DUP1 PUSH4 0x115CBAF5 EQ PUSH2 0xC1 JUMPI DUP1 PUSH4 0x1FE543E3 EQ PUSH2 0xEC JUMPI DUP1 PUSH4 0x2CFCC539 EQ PUSH2 0x115 JUMPI DUP1 PUSH4 0x4585E33B EQ PUSH2 0x11F JUMPI JUMPDEST PUSH1 0x0 DUP1 REVERT JUMPDEST CALLVALUE DUP1 ISZERO PUSH2 0xA2 JUMPI PUSH1 0x0 DUP1 REVERT JUMPDEST POP PUSH2 0xAB PUSH2 0x244 JUMP JUMPDEST PUSH1 0x40 MLOAD PUSH2 0xB8 SWAP2 SWAP1 PUSH2 0x10E7 JUMP JUMPDEST PUSH1 0x40 MLOAD DUP1 SWAP2 SUB SWAP1 RETURN JUMPDEST CALLVALUE DUP1 ISZERO PUSH2 0xCD JUMPI PUSH1 0x0 DUP1 REVERT JUMPDEST POP PUSH2 0xD6 PUSH2 0x26C JUMP JUMPDEST PUSH1 0x40 MLOAD PUSH2 0xE3 SWAP2 SWAP1 PUSH2 0x10CC JUMP JUMPDEST PUSH1 0x40 MLOAD DUP1 SWAP2 SUB SWAP1 RETURN JUMPDEST CALLVALUE DUP1 ISZERO PUSH2 0xF8 JUMPI PUSH1 0x0 DUP1 REVERT JUMPDEST POP PUSH2 0x113 PUSH1 0x4 DUP1 CALLDATASIZE SUB DUP2 ADD SWAP1 PUSH2 0x10E SWAP2 SWAP1 PUSH2 0xEC8 JUMP JUMPDEST PUSH2 0x283 JUMP JUMPDEST STOP JUMPDEST PUSH2 0x11D PUSH2 0x343 JUMP JUMPDEST STOP JUMPDEST CALLVALUE DUP1 ISZERO PUSH2 0x12B JUMPI PUSH1 0x0 DUP1 REVERT JUMPDEST POP PUSH2 0x146 PUSH1 0x4 DUP1 CALLDATASIZE SUB DUP2 ADD SWAP1 PUSH2 0x141 SWAP2 SWAP1 PUSH2 0xDF0 JUMP JUMPDEST PUSH2 0x4FE JUMP JUMPDEST STOP JUMPDEST CALLVALUE DUP1 ISZERO PUSH2 0x154 JUMPI PUSH1 0x0 DUP1 REVERT JUMPDEST POP PUSH2 0x15D PUSH2 0x749 JUMP JUMPDEST PUSH1 0x40 MLOAD PUSH2 0x16A SWAP2 SWAP1 PUSH2 0x1005 JUMP JUMPDEST PUSH1 0x40 MLOAD DUP1 SWAP2 SUB SWAP1 RETURN JUMPDEST CALLVALUE DUP1 ISZERO PUSH2 0x17F JUMPI PUSH1 0x0 DUP1 REVERT JUMPDEST POP PUSH2 0x19A PUSH1 0x4 DUP1 CALLDATASIZE SUB DUP2 ADD SWAP1 PUSH2 0x195 SWAP2 SWAP1 PUSH2 0xE35 JUMP JUMPDEST PUSH2 0x773 JUMP JUMPDEST PUSH1 0x40 MLOAD PUSH2 0x1A8 SWAP3 SWAP2 SWAP1 PUSH2 0x1049 JUMP JUMPDEST PUSH1 0x40 MLOAD DUP1 SWAP2 SUB SWAP1 RETURN JUMPDEST CALLVALUE DUP1 ISZERO PUSH2 0x1BD JUMPI PUSH1 0x0 DUP1 REVERT JUMPDEST POP PUSH2 0x1C6 PUSH2 0x86C JUMP JUMPDEST PUSH1 0x40 MLOAD PUSH2 0x1D3 SWAP2 SWAP1 PUSH2 0x10E7 JUMP JUMPDEST PUSH1 0x40 MLOAD DUP1 SWAP2 SUB SWAP1 RETURN JUMPDEST CALLVALUE DUP1 ISZERO PUSH2 0x1E8 JUMPI PUSH1 0x0 DUP1 REVERT JUMPDEST POP PUSH2 0x1F1 PUSH2 0x879 JUMP JUMPDEST PUSH1 0x40 MLOAD PUSH2 0x1FE SWAP2 SWAP1 PUSH2 0x10E7 JUMP JUMPDEST PUSH1 0x40 MLOAD DUP1 SWAP2 SUB SWAP1 RETURN JUMPDEST CALLVALUE DUP1 ISZERO PUSH2 0x213 JUMPI PUSH1 0x0 DUP1 REVERT JUMPDEST POP PUSH2 0x22E PUSH1 0x4 DUP1 CALLDATASIZE SUB DUP2 ADD SWAP1 PUSH2 0x229 SWAP2 SWAP1 PUSH2 0xE76 JUMP JUMPDEST PUSH2 0x8A1 JUMP JUMPDEST PUSH1 0x40 MLOAD PUSH2 0x23B SWAP2 SWAP1 PUSH2 0x1005 JUMP JUMPDEST PUSH1 0x40 MLOAD DUP1 SWAP2 SUB SWAP1 RETURN JUMPDEST PUSH1 0x0 PUSH32 0x0 SWAP1 POP SWAP1 JUMP JUMPDEST PUSH1 0x0 PUSH1 0x1 PUSH1 0x14 SWAP1 SLOAD SWAP1 PUSH2 0x100 EXP SWAP1 DIV PUSH1 0xFF AND SWAP1 POP SWAP1 JUMP JUMPDEST PUSH32 0x0 PUSH20 0xFFFFFFFFFFFFFFFFFFFFFFFFFFFFFFFFFFFFFFFF AND CALLER PUSH20 0xFFFFFFFFFFFFFFFFFFFFFFFFFFFFFFFFFFFFFFFF AND EQ PUSH2 0x335 JUMPI CALLER PUSH32 0x0 PUSH1 0x40 MLOAD PUSH32 0x1CF993F400000000000000000000000000000000000000000000000000000000 DUP2 MSTORE PUSH1 0x4 ADD PUSH2 0x32C SWAP3 SWAP2 SWAP1 PUSH2 0x1020 JUMP JUMPDEST PUSH1 0x40 MLOAD DUP1 SWAP2 SUB SWAP1 REVERT JUMPDEST PUSH2 0x33F DUP3 DUP3 PUSH2 0x90E JUMP JUMPDEST POP POP JUMP JUMPDEST PUSH32 0x0 CALLVALUE LT ISZERO PUSH2 0x39D JUMPI PUSH1 0x40 MLOAD PUSH32 0x74938F2700000000000000000000000000000000000000000000000000000000 DUP2 MSTORE PUSH1 0x4 ADD PUSH1 0x40 MLOAD DUP1 SWAP2 SUB SWAP1 REVERT JUMPDEST PUSH1 0x0 PUSH1 0x1 DUP2 GT ISZERO PUSH2 0x3D7 JUMPI PUSH32 0x4E487B7100000000000000000000000000000000000000000000000000000000 PUSH1 0x0 MSTORE PUSH1 0x21 PUSH1 0x4 MSTORE PUSH1 0x24 PUSH1 0x0 REVERT JUMPDEST PUSH1 0x1 PUSH1 0x14 SWAP1 SLOAD SWAP1 PUSH2 0x100 EXP SWAP1 DIV PUSH1 0xFF AND PUSH1 0x1 DUP2 GT ISZERO PUSH2 0x41F JUMPI PUSH32 0x4E487B7100000000000000000000000000000000000000000000000000000000 PUSH1 0x0 MSTORE PUSH1 0x21 PUSH1 0x4 MSTORE PUSH1 0x24 PUSH1 0x0 REVERT JUMPDEST EQ PUSH2 0x456 JUMPI PUSH1 0x40 MLOAD PUSH32 0xD6E19A8D00000000000000000000000000000000000000000000000000000000 DUP2 MSTORE PUSH1 0x4 ADD PUSH1 0x40 MLOAD DUP1 SWAP2 SUB SWAP1 REVERT JUMPDEST PUSH1 0x0 CALLER SWAP1 DUP1 PUSH1 0x1 DUP2 SLOAD ADD DUP1 DUP3 SSTORE DUP1 SWAP2 POP POP PUSH1 0x1 SWAP1 SUB SWAP1 PUSH1 0x0 MSTORE PUSH1 0x20 PUSH1 0x0 KECCAK256 ADD PUSH1 0x0 SWAP1 SWAP2 SWAP1 SWAP2 SWAP1 SWAP2 PUSH2 0x100 EXP DUP2 SLOAD DUP2 PUSH20 0xFFFFFFFFFFFFFFFFFFFFFFFFFFFFFFFFFFFFFFFF MUL NOT AND SWAP1 DUP4 PUSH20 0xFFFFFFFFFFFFFFFFFFFFFFFFFFFFFFFFFFFFFFFF AND MUL OR SWAP1 SSTORE POP CALLER PUSH20 0xFFFFFFFFFFFFFFFFFFFFFFFFFFFFFFFFFFFFFFFF AND PUSH32 0x805E1D667BDDB8A95F0F09880CF94F403FB596CE79928D9F29B74203BA284D4 PUSH1 0x40 MLOAD PUSH1 0x40 MLOAD DUP1 SWAP2 SUB SWAP1 LOG2 JUMP JUMPDEST PUSH1 0x0 PUSH2 0x518 PUSH1 0x40 MLOAD DUP1 PUSH1 0x20 ADD PUSH1 0x40 MSTORE DUP1 PUSH1 0x0 DUP2 MSTORE POP PUSH2 0x773 JUMP JUMPDEST POP SWAP1 POP DUP1 PUSH2 0x5AD JUMPI SELFBALANCE PUSH1 0x0 DUP1 SLOAD SWAP1 POP PUSH1 0x1 PUSH1 0x14 SWAP1 SLOAD SWAP1 PUSH2 0x100 EXP SWAP1 DIV PUSH1 0xFF AND PUSH1 0x1 DUP2 GT ISZERO PUSH2 0x56F JUMPI PUSH32 0x4E487B7100000000000000000000000000000000000000000000000000000000 PUSH1 0x0 MSTORE PUSH1 0x21 PUSH1 0x4 MSTORE PUSH1 0x24 PUSH1 0x0 REVERT JUMPDEST PUSH1 0x40 MLOAD PUSH32 0xC61DE3E100000000000000000000000000000000000000000000000000000000 DUP2 MSTORE PUSH1 0x4 ADD PUSH2 0x5A4 SWAP4 SWAP3 SWAP2 SWAP1 PUSH2 0x1102 JUMP JUMPDEST PUSH1 0x40 MLOAD DUP1 SWAP2 SUB SWAP1 REVERT JUMPDEST PUSH1 0x1 DUP1 PUSH1 0x14 PUSH2 0x100 EXP DUP2 SLOAD DUP2 PUSH1 0xFF MUL NOT AND SWAP1 DUP4 PUSH1 0x1 DUP2 GT ISZERO PUSH2 0x5F8 JUMPI PUSH32 0x4E487B7100000000000000000000000000000000000000000000000000000000 PUSH1 0x0 MSTORE PUSH1 0x21 PUSH1 0x4 MSTORE PUSH1 0x24 PUSH1 0x0 REVERT JUMPDEST MUL OR SWAP1 SSTORE POP PUSH1 0x0 PUSH32 0x0 PUSH20 0xFFFFFFFFFFFFFFFFFFFFFFFFFFFFFFFFFFFFFFFF AND PUSH4 0x5D3B1D30 PUSH32 0x0 PUSH32 0x0 PUSH1 0x3 PUSH32 0x0 PUSH1 0x1 PUSH1 0x40 MLOAD DUP7 PUSH4 0xFFFFFFFF AND PUSH1 0xE0 SHL DUP2 MSTORE PUSH1 0x4 ADD PUSH2 0x6C2 SWAP6 SWAP5 SWAP4 SWAP3 SWAP2 SWAP1 PUSH2 0x1079 JUMP JUMPDEST PUSH1 0x20 PUSH1 0x40 MLOAD DUP1 DUP4 SUB DUP2 PUSH1 0x0 DUP8 DUP1 EXTCODESIZE ISZERO DUP1 ISZERO PUSH2 0x6DC JUMPI PUSH1 0x0 DUP1 REVERT JUMPDEST POP GAS CALL ISZERO DUP1 ISZERO PUSH2 0x6F0 JUMPI RETURNDATASIZE PUSH1 0x0 DUP1 RETURNDATACOPY RETURNDATASIZE PUSH1 0x0 REVERT JUMPDEST POP POP POP POP PUSH1 0x40 MLOAD RETURNDATASIZE PUSH1 0x1F NOT PUSH1 0x1F DUP3 ADD AND DUP3 ADD DUP1 PUSH1 0x40 MSTORE POP DUP2 ADD SWAP1 PUSH2 0x714 SWAP2 SWAP1 PUSH2 0xE9F JUMP JUMPDEST SWAP1 POP DUP1 PUSH32 0xDE6349B018D6C03D837B67D9A198A6BA4842546F2295FE963FAE141E5DBAEF81 PUSH1 0x40 MLOAD PUSH1 0x40 MLOAD DUP1 SWAP2 SUB SWAP1 LOG2 POP POP POP POP JUMP JUMPDEST PUSH1 0x0 PUSH1 0x1 PUSH1 0x0 SWAP1 SLOAD SWAP1 PUSH2 0x100 EXP SWAP1 DIV PUSH20 0xFFFFFFFFFFFFFFFFFFFFFFFFFFFFFFFFFFFFFFFF AND SWAP1 POP SWAP1 JUMP JUMPDEST PUSH1 0x0 PUSH1 0x60 PUSH1 0x0 PUSH1 0x1 PUSH1 0x14 SWAP1 SLOAD SWAP1 PUSH2 0x100 EXP SWAP1 DIV PUSH1 0xFF AND PUSH1 0x1 DUP2 GT ISZERO PUSH2 0x7C1 JUMPI PUSH32 0x4E487B7100000000000000000000000000000000000000000000000000000000 PUSH1 0x0 MSTORE PUSH1 0x21 PUSH1 0x4 MSTORE PUSH1 0x24 PUSH1 0x0 REVERT JUMPDEST PUSH1 0x0 PUSH1 0x1 DUP2 GT ISZERO PUSH2 0x7FB JUMPI PUSH32 0x4E487B7100000000000000000000000000000000000000000000000000000000 PUSH1 0x0 MSTORE PUSH1 0x21 PUSH1 0x4 MSTORE PUSH1 0x24 PUSH1 0x0 REVERT JUMPDEST EQ SWAP1 POP PUSH1 0x0 PUSH32 0x0 PUSH1 0x2 SLOAD TIMESTAMP PUSH2 0x82F SWAP2 SWAP1 PUSH2 0x11E2 JUMP JUMPDEST GT SWAP1 POP PUSH1 0x0 DUP1 PUSH1 0x0 DUP1 SLOAD SWAP1 POP GT SWAP1 POP PUSH1 0x0 DUP1 SELFBALANCE GT SWAP1 POP DUP4 DUP1 ISZERO PUSH2 0x84F JUMPI POP DUP3 JUMPDEST DUP1 ISZERO PUSH2 0x858 JUMPI POP DUP1 JUMPDEST DUP1 ISZERO PUSH2 0x861 JUMPI POP DUP2 JUMPDEST SWAP6 POP POP POP POP POP SWAP2 POP SWAP2 JUMP JUMPDEST PUSH1 0x0 PUSH1 0x1 PUSH2 0xFFFF AND SWAP1 POP SWAP1 JUMP JUMPDEST PUSH1 0x0 PUSH32 0x0 SWAP1 POP SWAP1 JUMP JUMPDEST PUSH1 0x0 DUP1 DUP3 DUP2 SLOAD DUP2 LT PUSH2 0x8DC JUMPI PUSH32 0x4E487B7100000000000000000000000000000000000000000000000000000000 PUSH1 0x0 MSTORE PUSH1 0x32 PUSH1 0x4 MSTORE PUSH1 0x24 PUSH1 0x0 REVERT JUMPDEST SWAP1 PUSH1 0x0 MSTORE PUSH1 0x20 PUSH1 0x0 KECCAK256 ADD PUSH1 0x0 SWAP1 SLOAD SWAP1 PUSH2 0x100 EXP SWAP1 DIV PUSH20 0xFFFFFFFFFFFFFFFFFFFFFFFFFFFFFFFFFFFFFFFF AND SWAP1 POP SWAP2 SWAP1 POP JUMP JUMPDEST PUSH1 0x0 DUP1 DUP1 SLOAD SWAP1 POP DUP3 PUSH1 0x0 DUP2 MLOAD DUP2 LT PUSH2 0x94F JUMPI PUSH32 0x4E487B7100000000000000000000000000000000000000000000000000000000 PUSH1 0x0 MSTORE PUSH1 0x32 PUSH1 0x4 MSTORE PUSH1 0x24 PUSH1 0x0 REVERT JUMPDEST PUSH1 0x20 MUL PUSH1 0x20 ADD ADD MLOAD PUSH2 0x961 SWAP2 SWAP1 PUSH2 0x1334 JUMP JUMPDEST SWAP1 POP PUSH1 0x0 DUP1 DUP3 DUP2 SLOAD DUP2 LT PUSH2 0x99E JUMPI PUSH32 0x4E487B7100000000000000000000000000000000000000000000000000000000 PUSH1 0x0 MSTORE PUSH1 0x32 PUSH1 0x4 MSTORE PUSH1 0x24 PUSH1 0x0 REVERT JUMPDEST SWAP1 PUSH1 0x0 MSTORE PUSH1 0x20 PUSH1 0x0 KECCAK256 ADD PUSH1 0x0 SWAP1 SLOAD SWAP1 PUSH2 0x100 EXP SWAP1 DIV PUSH20 0xFFFFFFFFFFFFFFFFFFFFFFFFFFFFFFFFFFFFFFFF AND SWAP1 POP DUP1 PUSH1 0x1 PUSH1 0x0 PUSH2 0x100 EXP DUP2 SLOAD DUP2 PUSH20 0xFFFFFFFFFFFFFFFFFFFFFFFFFFFFFFFFFFFFFFFF MUL NOT AND SWAP1 DUP4 PUSH20 0xFFFFFFFFFFFFFFFFFFFFFFFFFFFFFFFFFFFFFFFF AND MUL OR SWAP1 SSTORE POP PUSH1 0x0 DUP2 PUSH20 0xFFFFFFFFFFFFFFFFFFFFFFFFFFFFFFFFFFFFFFFF AND SELFBALANCE PUSH1 0x40 MLOAD PUSH2 0xA32 SWAP1 PUSH2 0xFF0 JUMP JUMPDEST PUSH1 0x0 PUSH1 0x40 MLOAD DUP1 DUP4 SUB DUP2 DUP6 DUP8 GAS CALL SWAP3 POP POP POP RETURNDATASIZE DUP1 PUSH1 0x0 DUP2 EQ PUSH2 0xA6F JUMPI PUSH1 0x40 MLOAD SWAP2 POP PUSH1 0x1F NOT PUSH1 0x3F RETURNDATASIZE ADD AND DUP3 ADD PUSH1 0x40 MSTORE RETURNDATASIZE DUP3 MSTORE RETURNDATASIZE PUSH1 0x0 PUSH1 0x20 DUP5 ADD RETURNDATACOPY PUSH2 0xA74 JUMP JUMPDEST PUSH1 0x60 SWAP2 POP JUMPDEST POP POP SWAP1 POP DUP1 PUSH2 0xAAF JUMPI PUSH1 0x40 MLOAD PUSH32 0xBA31C4F300000000000000000000000000000000000000000000000000000000 DUP2 MSTORE PUSH1 0x4 ADD PUSH1 0x40 MLOAD DUP1 SWAP2 SUB SWAP1 REVERT JUMPDEST DUP2 PUSH20 0xFFFFFFFFFFFFFFFFFFFFFFFFFFFFFFFFFFFFFFFF AND PUSH32 0x5B690EC4A06FE979403046EAEEA5B3CE38524683C3001F662C8B5A829632F7DF PUSH1 0x40 MLOAD PUSH1 0x40 MLOAD DUP1 SWAP2 SUB SWAP1 LOG2 PUSH1 0x0 PUSH1 0x1 PUSH1 0x14 PUSH2 0x100 EXP DUP2 SLOAD DUP2 PUSH1 0xFF MUL NOT AND SWAP1 DUP4 PUSH1 0x1 DUP2 GT ISZERO PUSH2 0xB3E JUMPI PUSH32 0x4E487B7100000000000000000000000000000000000000000000000000000000 PUSH1 0x0 MSTORE PUSH1 0x21 PUSH1 0x4 MSTORE PUSH1 0x24 PUSH1 0x0 REVERT JUMPDEST MUL OR SWAP1 SSTORE POP PUSH1 0x0 PUSH8 0xFFFFFFFFFFFFFFFF DUP2 GT ISZERO PUSH2 0xB84 JUMPI PUSH32 0x4E487B7100000000000000000000000000000000000000000000000000000000 PUSH1 0x0 MSTORE PUSH1 0x41 PUSH1 0x4 MSTORE PUSH1 0x24 PUSH1 0x0 REVERT JUMPDEST PUSH1 0x40 MLOAD SWAP1 DUP1 DUP3 MSTORE DUP1 PUSH1 0x20 MUL PUSH1 0x20 ADD DUP3 ADD PUSH1 0x40 MSTORE DUP1 ISZERO PUSH2 0xBB2 JUMPI DUP2 PUSH1 0x20 ADD PUSH1 0x20 DUP3 MUL DUP1 CALLDATASIZE DUP4 CALLDATACOPY DUP1 DUP3 ADD SWAP2 POP POP SWAP1 POP JUMPDEST POP PUSH1 0x0 SWAP1 DUP1 MLOAD SWAP1 PUSH1 0x20 ADD SWAP1 PUSH2 0xBC8 SWAP3 SWAP2 SWAP1 PUSH2 0xBD7 JUMP JUMPDEST POP TIMESTAMP PUSH1 0x2 DUP2 SWAP1 SSTORE POP POP POP POP POP POP JUMP JUMPDEST DUP3 DUP1 SLOAD DUP3 DUP3 SSTORE SWAP1 PUSH1 0x0 MSTORE PUSH1 0x20 PUSH1 0x0 KECCAK256 SWAP1 DUP2 ADD SWAP3 DUP3 ISZERO PUSH2 0xC50 JUMPI SWAP2 PUSH1 0x20 MUL DUP3 ADD JUMPDEST DUP3 DUP2 GT ISZERO PUSH2 0xC4F JUMPI DUP3 MLOAD DUP3 PUSH1 0x0 PUSH2 0x100 EXP DUP2 SLOAD DUP2 PUSH20 0xFFFFFFFFFFFFFFFFFFFFFFFFFFFFFFFFFFFFFFFF MUL NOT AND SWAP1 DUP4 PUSH20 0xFFFFFFFFFFFFFFFFFFFFFFFFFFFFFFFFFFFFFFFF AND MUL OR SWAP1 SSTORE POP SWAP2 PUSH1 0x20 ADD SWAP2 SWAP1 PUSH1 0x1 ADD SWAP1 PUSH2 0xBF7 JUMP JUMPDEST JUMPDEST POP SWAP1 POP PUSH2 0xC5D SWAP2 SWAP1 PUSH2 0xC61 JUMP JUMPDEST POP SWAP1 JUMP JUMPDEST JUMPDEST DUP1 DUP3 GT ISZERO PUSH2 0xC7A JUMPI PUSH1 0x0 DUP2 PUSH1 0x0 SWAP1 SSTORE POP PUSH1 0x1 ADD PUSH2 0xC62 JUMP JUMPDEST POP SWAP1 JUMP JUMPDEST PUSH1 0x0 PUSH2 0xC91 PUSH2 0xC8C DUP5 PUSH2 0x115E JUMP JUMPDEST PUSH2 0x1139 JUMP JUMPDEST SWAP1 POP DUP1 DUP4 DUP3 MSTORE PUSH1 0x20 DUP3 ADD SWAP1 POP DUP3 DUP6 PUSH1 0x20 DUP7 MUL DUP3 ADD GT ISZERO PUSH2 0xCB0 JUMPI PUSH1 0x0 DUP1 REVERT JUMPDEST PUSH1 0x0 JUMPDEST DUP6 DUP2 LT ISZERO PUSH2 0xCE0 JUMPI DUP2 PUSH2 0xCC6 DUP9 DUP3 PUSH2 0xDC6 JUMP JUMPDEST DUP5 MSTORE PUSH1 0x20 DUP5 ADD SWAP4 POP PUSH1 0x20 DUP4 ADD SWAP3 POP POP PUSH1 0x1 DUP2 ADD SWAP1 POP PUSH2 0xCB3 JUMP JUMPDEST POP POP POP SWAP4 SWAP3 POP POP POP JUMP JUMPDEST PUSH1 0x0 PUSH2 0xCFD PUSH2 0xCF8 DUP5 PUSH2 0x118A JUMP JUMPDEST PUSH2 0x1139 JUMP JUMPDEST SWAP1 POP DUP3 DUP2 MSTORE PUSH1 0x20 DUP2 ADD DUP5 DUP5 DUP5 ADD GT ISZERO PUSH2 0xD15 JUMPI PUSH1 0x0 DUP1 REVERT JUMPDEST PUSH2 0xD20 DUP5 DUP3 DUP6 PUSH2 0x12C1 JUMP JUMPDEST POP SWAP4 SWAP3 POP POP POP JUMP JUMPDEST PUSH1 0x0 DUP3 PUSH1 0x1F DUP4 ADD SLT PUSH2 0xD39 JUMPI PUSH1 0x0 DUP1 REVERT JUMPDEST DUP2 CALLDATALOAD PUSH2 0xD49 DUP5 DUP3 PUSH1 0x20 DUP7 ADD PUSH2 0xC7E JUMP JUMPDEST SWAP2 POP POP SWAP3 SWAP2 POP POP JUMP JUMPDEST PUSH1 0x0 DUP1 DUP4 PUSH1 0x1F DUP5 ADD SLT PUSH2 0xD64 JUMPI PUSH1 0x0 DUP1 REVERT JUMPDEST DUP3 CALLDATALOAD SWAP1 POP PUSH8 0xFFFFFFFFFFFFFFFF DUP2 GT ISZERO PUSH2 0xD7D JUMPI PUSH1 0x0 DUP1 REVERT JUMPDEST PUSH1 0x20 DUP4 ADD SWAP2 POP DUP4 PUSH1 0x1 DUP3 MUL DUP4 ADD GT ISZERO PUSH2 0xD95 JUMPI PUSH1 0x0 DUP1 REVERT JUMPDEST SWAP3 POP SWAP3 SWAP1 POP JUMP JUMPDEST PUSH1 0x0 DUP3 PUSH1 0x1F DUP4 ADD SLT PUSH2 0xDAD JUMPI PUSH1 0x0 DUP1 REVERT JUMPDEST DUP2 CALLDATALOAD PUSH2 0xDBD DUP5 DUP3 PUSH1 0x20 DUP7 ADD PUSH2 0xCEA JUMP JUMPDEST SWAP2 POP POP SWAP3 SWAP2 POP POP JUMP JUMPDEST PUSH1 0x0 DUP2 CALLDATALOAD SWAP1 POP PUSH2 0xDD5 DUP2 PUSH2 0x1449 JUMP JUMPDEST SWAP3 SWAP2 POP POP JUMP JUMPDEST PUSH1 0x0 DUP2 MLOAD SWAP1 POP PUSH2 0xDEA DUP2 PUSH2 0x1449 JUMP JUMPDEST SWAP3 SWAP2 POP POP JUMP JUMPDEST PUSH1 0x0 DUP1 PUSH1 0x20 DUP4 DUP6 SUB SLT ISZERO PUSH2 0xE03 JUMPI PUSH1 0x0 DUP1 REVERT JUMPDEST PUSH1 0x0 DUP4 ADD CALLDATALOAD PUSH8 0xFFFFFFFFFFFFFFFF DUP2 GT ISZERO PUSH2 0xE1D JUMPI PUSH1 0x0 DUP1 REVERT JUMPDEST PUSH2 0xE29 DUP6 DUP3 DUP7 ADD PUSH2 0xD52 JUMP JUMPDEST SWAP3 POP SWAP3 POP POP SWAP3 POP SWAP3 SWAP1 POP JUMP JUMPDEST PUSH1 0x0 PUSH1 0x20 DUP3 DUP5 SUB SLT ISZERO PUSH2 0xE47 JUMPI PUSH1 0x0 DUP1 REVERT JUMPDEST PUSH1 0x0 DUP3 ADD CALLDATALOAD PUSH8 0xFFFFFFFFFFFFFFFF DUP2 GT ISZERO PUSH2 0xE61 JUMPI PUSH1 0x0 DUP1 REVERT JUMPDEST PUSH2 0xE6D DUP5 DUP3 DUP6 ADD PUSH2 0xD9C JUMP JUMPDEST SWAP2 POP POP SWAP3 SWAP2 POP POP JUMP JUMPDEST PUSH1 0x0 PUSH1 0x20 DUP3 DUP5 SUB SLT ISZERO PUSH2 0xE88 JUMPI PUSH1 0x0 DUP1 REVERT JUMPDEST PUSH1 0x0 PUSH2 0xE96 DUP5 DUP3 DUP6 ADD PUSH2 0xDC6 JUMP JUMPDEST SWAP2 POP POP SWAP3 SWAP2 POP POP JUMP JUMPDEST PUSH1 0x0 PUSH1 0x20 DUP3 DUP5 SUB SLT ISZERO PUSH2 0xEB1 JUMPI PUSH1 0x0 DUP1 REVERT JUMPDEST PUSH1 0x0 PUSH2 0xEBF DUP5 DUP3 DUP6 ADD PUSH2 0xDDB JUMP JUMPDEST SWAP2 POP POP SWAP3 SWAP2 POP POP JUMP JUMPDEST PUSH1 0x0 DUP1 PUSH1 0x40 DUP4 DUP6 SUB SLT ISZERO PUSH2 0xEDB JUMPI PUSH1 0x0 DUP1 REVERT JUMPDEST PUSH1 0x0 PUSH2 0xEE9 DUP6 DUP3 DUP7 ADD PUSH2 0xDC6 JUMP JUMPDEST SWAP3 POP POP PUSH1 0x20 DUP4 ADD CALLDATALOAD PUSH8 0xFFFFFFFFFFFFFFFF DUP2 GT ISZERO PUSH2 0xF06 JUMPI PUSH1 0x0 DUP1 REVERT JUMPDEST PUSH2 0xF12 DUP6 DUP3 DUP7 ADD PUSH2 0xD28 JUMP JUMPDEST SWAP2 POP POP SWAP3 POP SWAP3 SWAP1 POP JUMP JUMPDEST PUSH2 0xF25 DUP2 PUSH2 0x1216 JUMP JUMPDEST DUP3 MSTORE POP POP JUMP JUMPDEST PUSH2 0xF34 DUP2 PUSH2 0x1228 JUMP JUMPDEST DUP3 MSTORE POP POP JUMP JUMPDEST PUSH2 0xF43 DUP2 PUSH2 0x1234 JUMP JUMPDEST DUP3 MSTORE POP POP JUMP JUMPDEST PUSH1 0x0 PUSH2 0xF54 DUP3 PUSH2 0x11BB JUMP JUMPDEST PUSH2 0xF5E DUP2 DUP6 PUSH2 0x11C6 JUMP JUMPDEST SWAP4 POP PUSH2 0xF6E DUP2 DUP6 PUSH1 0x20 DUP7 ADD PUSH2 0x12D0 JUMP JUMPDEST PUSH2 0xF77 DUP2 PUSH2 0x1421 JUMP JUMPDEST DUP5 ADD SWAP2 POP POP SWAP3 SWAP2 POP POP JUMP JUMPDEST PUSH2 0xF8B DUP2 PUSH2 0x129D JUMP JUMPDEST DUP3 MSTORE POP POP JUMP JUMPDEST PUSH1 0x0 PUSH2 0xF9E PUSH1 0x0 DUP4 PUSH2 0x11D7 JUMP JUMPDEST SWAP2 POP PUSH2 0xFA9 DUP3 PUSH2 0x1432 JUMP JUMPDEST PUSH1 0x0 DUP3 ADD SWAP1 POP SWAP2 SWAP1 POP JUMP JUMPDEST PUSH2 0xFBD DUP2 PUSH2 0x1251 JUMP JUMPDEST DUP3 MSTORE POP POP JUMP JUMPDEST PUSH2 0xFCC DUP2 PUSH2 0x12AF JUMP JUMPDEST DUP3 MSTORE POP POP JUMP JUMPDEST PUSH2 0xFDB DUP2 PUSH2 0x127F JUMP JUMPDEST DUP3 MSTORE POP POP JUMP JUMPDEST PUSH2 0xFEA DUP2 PUSH2 0x1289 JUMP JUMPDEST DUP3 MSTORE POP POP JUMP JUMPDEST PUSH1 0x0 PUSH2 0xFFB DUP3 PUSH2 0xF91 JUMP JUMPDEST SWAP2 POP DUP2 SWAP1 POP SWAP2 SWAP1 POP JUMP JUMPDEST PUSH1 0x0 PUSH1 0x20 DUP3 ADD SWAP1 POP PUSH2 0x101A PUSH1 0x0 DUP4 ADD DUP5 PUSH2 0xF1C JUMP JUMPDEST SWAP3 SWAP2 POP POP JUMP JUMPDEST PUSH1 0x0 PUSH1 0x40 DUP3 ADD SWAP1 POP PUSH2 0x1035 PUSH1 0x0 DUP4 ADD DUP6 PUSH2 0xF1C JUMP JUMPDEST PUSH2 0x1042 PUSH1 0x20 DUP4 ADD DUP5 PUSH2 0xF1C JUMP JUMPDEST SWAP4 SWAP3 POP POP POP JUMP JUMPDEST PUSH1 0x0 PUSH1 0x40 DUP3 ADD SWAP1 POP PUSH2 0x105E PUSH1 0x0 DUP4 ADD DUP6 PUSH2 0xF2B JUMP JUMPDEST DUP2 DUP2 SUB PUSH1 0x20 DUP4 ADD MSTORE PUSH2 0x1070 DUP2 DUP5 PUSH2 0xF49 JUMP JUMPDEST SWAP1 POP SWAP4 SWAP3 POP POP POP JUMP JUMPDEST PUSH1 0x0 PUSH1 0xA0 DUP3 ADD SWAP1 POP PUSH2 0x108E PUSH1 0x0 DUP4 ADD DUP9 PUSH2 0xF3A JUMP JUMPDEST PUSH2 0x109B PUSH1 0x20 DUP4 ADD DUP8 PUSH2 0xFE1 JUMP JUMPDEST PUSH2 0x10A8 PUSH1 0x40 DUP4 ADD DUP7 PUSH2 0xFB4 JUMP JUMPDEST PUSH2 0x10B5 PUSH1 0x60 DUP4 ADD DUP6 PUSH2 0xFC3 JUMP JUMPDEST PUSH2 0x10C2 PUSH1 0x80 DUP4 ADD DUP5 PUSH2 0xFC3 JUMP JUMPDEST SWAP7 SWAP6 POP POP POP POP POP POP JUMP JUMPDEST PUSH1 0x0 PUSH1 0x20 DUP3 ADD SWAP1 POP PUSH2 0x10E1 PUSH1 0x0 DUP4 ADD DUP5 PUSH2 0xF82 JUMP JUMPDEST SWAP3 SWAP2 POP POP JUMP JUMPDEST PUSH1 0x0 PUSH1 0x20 DUP3 ADD SWAP1 POP PUSH2 0x10FC PUSH1 0x0 DUP4 ADD DUP5 PUSH2 0xFD2 JUMP JUMPDEST SWAP3 SWAP2 POP POP JUMP JUMPDEST PUSH1 0x0 PUSH1 0x60 DUP3 ADD SWAP1 POP PUSH2 0x1117 PUSH1 0x0 DUP4 ADD DUP7 PUSH2 0xFD2 JUMP JUMPDEST PUSH2 0x1124 PUSH1 0x20 DUP4 ADD DUP6 PUSH2 0xFD2 JUMP JUMPDEST PUSH2 0x1131 PUSH1 0x40 DUP4 ADD DUP5 PUSH2 0xFD2 JUMP JUMPDEST SWAP5 SWAP4 POP POP POP POP JUMP JUMPDEST PUSH1 0x0 PUSH2 0x1143 PUSH2 0x1154 JUMP JUMPDEST SWAP1 POP PUSH2 0x114F DUP3 DUP3 PUSH2 0x1303 JUMP JUMPDEST SWAP2 SWAP1 POP JUMP JUMPDEST PUSH1 0x0 PUSH1 0x40 MLOAD SWAP1 POP SWAP1 JUMP JUMPDEST PUSH1 0x0 PUSH8 0xFFFFFFFFFFFFFFFF DUP3 GT ISZERO PUSH2 0x1179 JUMPI PUSH2 0x1178 PUSH2 0x13F2 JUMP JUMPDEST JUMPDEST PUSH1 0x20 DUP3 MUL SWAP1 POP PUSH1 0x20 DUP2 ADD SWAP1 POP SWAP2 SWAP1 POP JUMP JUMPDEST PUSH1 0x0 PUSH8 0xFFFFFFFFFFFFFFFF DUP3 GT ISZERO PUSH2 0x11A5 JUMPI PUSH2 0x11A4 PUSH2 0x13F2 JUMP JUMPDEST JUMPDEST PUSH2 0x11AE DUP3 PUSH2 0x1421 JUMP JUMPDEST SWAP1 POP PUSH1 0x20 DUP2 ADD SWAP1 POP SWAP2 SWAP1 POP JUMP JUMPDEST PUSH1 0x0 DUP2 MLOAD SWAP1 POP SWAP2 SWAP1 POP JUMP JUMPDEST PUSH1 0x0 DUP3 DUP3 MSTORE PUSH1 0x20 DUP3 ADD SWAP1 POP SWAP3 SWAP2 POP POP JUMP JUMPDEST PUSH1 0x0 DUP2 SWAP1 POP SWAP3 SWAP2 POP POP JUMP JUMPDEST PUSH1 0x0 PUSH2 0x11ED DUP3 PUSH2 0x127F JUMP JUMPDEST SWAP2 POP PUSH2 0x11F8 DUP4 PUSH2 0x127F JUMP JUMPDEST SWAP3 POP DUP3 DUP3 LT ISZERO PUSH2 0x120B JUMPI PUSH2 0x120A PUSH2 0x1365 JUMP JUMPDEST JUMPDEST DUP3 DUP3 SUB SWAP1 POP SWAP3 SWAP2 POP POP JUMP JUMPDEST PUSH1 0x0 PUSH2 0x1221 DUP3 PUSH2 0x125F JUMP JUMPDEST SWAP1 POP SWAP2 SWAP1 POP JUMP JUMPDEST PUSH1 0x0 DUP2 ISZERO ISZERO SWAP1 POP SWAP2 SWAP1 POP JUMP JUMPDEST PUSH1 0x0 DUP2 SWAP1 POP SWAP2 SWAP1 POP JUMP JUMPDEST PUSH1 0x0 DUP2 SWAP1 POP PUSH2 0x124C DUP3 PUSH2 0x1435 JUMP JUMPDEST SWAP2 SWAP1 POP JUMP JUMPDEST PUSH1 0x0 PUSH2 0xFFFF DUP3 AND SWAP1 POP SWAP2 SWAP1 POP JUMP JUMPDEST PUSH1 0x0 PUSH20 0xFFFFFFFFFFFFFFFFFFFFFFFFFFFFFFFFFFFFFFFF DUP3 AND SWAP1 POP SWAP2 SWAP1 POP JUMP JUMPDEST PUSH1 0x0 DUP2 SWAP1 POP SWAP2 SWAP1 POP JUMP JUMPDEST PUSH1 0x0 PUSH8 0xFFFFFFFFFFFFFFFF DUP3 AND SWAP1 POP SWAP2 SWAP1 POP JUMP JUMPDEST PUSH1 0x0 PUSH2 0x12A8 DUP3 PUSH2 0x123E JUMP JUMPDEST SWAP1 POP SWAP2 SWAP1 POP JUMP JUMPDEST PUSH1 0x0 PUSH2 0x12BA DUP3 PUSH2 0x1251 JUMP JUMPDEST SWAP1 POP SWAP2 SWAP1 POP JUMP JUMPDEST DUP3 DUP2 DUP4 CALLDATACOPY PUSH1 0x0 DUP4 DUP4 ADD MSTORE POP POP POP JUMP JUMPDEST PUSH1 0x0 JUMPDEST DUP4 DUP2 LT ISZERO PUSH2 0x12EE JUMPI DUP1 DUP3 ADD MLOAD DUP2 DUP5 ADD MSTORE PUSH1 0x20 DUP2 ADD SWAP1 POP PUSH2 0x12D3 JUMP JUMPDEST DUP4 DUP2 GT ISZERO PUSH2 0x12FD JUMPI PUSH1 0x0 DUP5 DUP5 ADD MSTORE JUMPDEST POP POP POP POP JUMP JUMPDEST PUSH2 0x130C DUP3 PUSH2 0x1421 JUMP JUMPDEST DUP2 ADD DUP2 DUP2 LT PUSH8 0xFFFFFFFFFFFFFFFF DUP3 GT OR ISZERO PUSH2 0x132B JUMPI PUSH2 0x132A PUSH2 0x13F2 JUMP JUMPDEST JUMPDEST DUP1 PUSH1 0x40 MSTORE POP POP POP JUMP JUMPDEST PUSH1 0x0 PUSH2 0x133F DUP3 PUSH2 0x127F JUMP JUMPDEST SWAP2 POP PUSH2 0x134A DUP4 PUSH2 0x127F JUMP JUMPDEST SWAP3 POP DUP3 PUSH2 0x135A JUMPI PUSH2 0x1359 PUSH2 0x1394 JUMP JUMPDEST JUMPDEST DUP3 DUP3 MOD SWAP1 POP SWAP3 SWAP2 POP POP JUMP JUMPDEST PUSH32 0x4E487B7100000000000000000000000000000000000000000000000000000000 PUSH1 0x0 MSTORE PUSH1 0x11 PUSH1 0x4 MSTORE PUSH1 0x24 PUSH1 0x0 REVERT JUMPDEST PUSH32 0x4E487B7100000000000000000000000000000000000000000000000000000000 PUSH1 0x0 MSTORE PUSH1 0x12 PUSH1 0x4 MSTORE PUSH1 0x24 PUSH1 0x0 REVERT JUMPDEST PUSH32 0x4E487B7100000000000000000000000000000000000000000000000000000000 PUSH1 0x0 MSTORE PUSH1 0x21 PUSH1 0x4 MSTORE PUSH1 0x24 PUSH1 0x0 REVERT JUMPDEST PUSH32 0x4E487B7100000000000000000000000000000000000000000000000000000000 PUSH1 0x0 MSTORE PUSH1 0x41 PUSH1 0x4 MSTORE PUSH1 0x24 PUSH1 0x0 REVERT JUMPDEST PUSH1 0x0 PUSH1 0x1F NOT PUSH1 0x1F DUP4 ADD AND SWAP1 POP SWAP2 SWAP1 POP JUMP JUMPDEST POP JUMP JUMPDEST PUSH1 0x2 DUP2 LT PUSH2 0x1446 JUMPI PUSH2 0x1445 PUSH2 0x13C3 JUMP JUMPDEST JUMPDEST POP JUMP JUMPDEST PUSH2 0x1452 DUP2 PUSH2 0x127F JUMP JUMPDEST DUP2 EQ PUSH2 0x145D JUMPI PUSH1 0x0 DUP1 REVERT JUMPDEST POP JUMP INVALID LOG2 PUSH5 0x6970667358 0x22 SLT KECCAK256 0xC6 0x5E 0xEC EXTCODESIZE 0xEB 0xB6 0xAE GT MLOAD PUSH2 0xE6B4 CODESIZE PUSH1 0xF7 0xE5 0xF6 PUSH29 0x32E8C2C64A0C4E9D08A9FE2FED8164736F6C6343000804003300000000 "},"gasEstimates":{"creation":{"codeDepositCost":"1054000","executionCost":"infinite","totalCost":"infinite"},"external":{"checkUpkeep(bytes)":"infinite","enterRaffle()":"infinite","getEntranceFee()":"infinite","getInterval()":"infinite","getNumbers()":"387","getPlayer(uint256)":"2455","getRaffleState()":"1341","getRecentWinner()":"1222","performUpkeep(bytes)":"infinite","rawFulfillRandomWords(uint256,uint256[])":"infinite"},"internal":{"fulfillRandomWords(uint256,uint256[] memory)":"infinite"}},"methodIdentifiers":{"checkUpkeep(bytes)":"6e04ff0d","enterRaffle()":"2cfcc539","getEntranceFee()":"09bc33a7","getInterval()":"91ad27b4","getNumbers()":"89f915f6","getPlayer(uint256)":"e55ae4e8","getRaffleState()":"115cbaf5","getRecentWinner()":"473f1ddc","performUpkeep(bytes)":"4585e33b","rawFulfillRandomWords(uint256,uint256[])":"1fe543e3"}},"storageLayout":{"storage":[{"astId":252,"contract":"contracts/Raffle.sol:Raffle","label":"s_players","offset":0,"slot":"0","type":"t_array(t_address_payable)dyn_storage"},{"astId":269,"contract":"contracts/Raffle.sol:Raffle","label":"s_recentWinner","offset":0,"slot":"1","type":"t_address"},{"astId":272,"contract":"contracts/Raffle.sol:Raffle","label":"s_raffleState","offset":20,"slot":"1","type":"t_enum(RaffleState)247"},{"astId":274,"contract":"contracts/Raffle.sol:Raffle","label":"s_lastTimeStemp","offset":0,"slot":"2","type":"t_uint256"}],"types":{"t_address":{"encoding":"inplace","label":"address","numberOfBytes":"20"},"t_address_payable":{"encoding":"inplace","label":"address payable","numberOfBytes":"20"},"t_array(t_address_payable)dyn_storage":{"base":"t_address_payable","encoding":"dynamic_array","label":"address payable[]","numberOfBytes":"32"},"t_enum(RaffleState)247":{"encoding":"inplace","label":"enum Raffle.RaffleState","numberOfBytes":"1"},"t_uint256":{"encoding":"inplace","label":"uint256","numberOfBytes":"32"}}},"userdoc":{"kind":"user","methods":{"checkUpkeep(bytes)":{"notice":"AutomationCompatibleInterface 的方法 确认当前能否调用 performUpkeep"}},"version":1}}}}