{
  "_format": "hh-sol-artifact-1",
  "contractName": "Raffle",
  "sourceName": "contracts/Raffle.sol",
  "abi": [
    {
      "inputs": [
        {
          "internalType": "address",
          "name": "vrfCoordinatorV2",
          "type": "address"
        },
        {
          "internalType": "uint256",
          "name": "entranceFee",
          "type": "uint256"
        },
        {
          "internalType": "bytes32",
          "name": "gasLane",
          "type": "bytes32"
        },
        {
          "internalType": "uint64",
          "name": "subscriptionId",
          "type": "uint64"
        },
        {
          "internalType": "uint16",
          "name": "callbackGasLimit",
          "type": "uint16"
        },
        {
          "internalType": "uint256",
          "name": "interval",
          "type": "uint256"
        }
      ],
      "stateMutability": "nonpayable",
      "type": "constructor"
    },
    {
      "inputs": [
        {
          "internalType": "address",
          "name": "have",
          "type": "address"
        },
        {
          "internalType": "address",
          "name": "want",
          "type": "address"
        }
      ],
      "name": "OnlyCoordinatorCanFulfill",
      "type": "error"
    },
    {
      "inputs": [],
      "name": "Raffle_NotEnoughETHEntered",
      "type": "error"
    },
    {
      "inputs": [],
      "name": "Raffle_NotOpen",
      "type": "error"
    },
    {
      "inputs": [],
      "name": "Raffle_TransferFailed",
      "type": "error"
    },
    {
      "inputs": [
        {
          "internalType": "uint256",
          "name": "currentBalance",
          "type": "uint256"
        },
        {
          "internalType": "uint256",
          "name": "numberPalyers",
          "type": "uint256"
        },
        {
          "internalType": "uint256",
          "name": "raffleState",
          "type": "uint256"
        }
      ],
      "name": "Raffle_UpKeepNotNeeded",
      "type": "error"
    },
    {
      "anonymous": false,
      "inputs": [
        {
          "indexed": true,
          "internalType": "address",
          "name": "player",
          "type": "address"
        }
      ],
      "name": "RaffleEnter",
      "type": "event"
    },
    {
      "anonymous": false,
      "inputs": [
        {
          "indexed": true,
          "internalType": "uint256",
          "name": "requestId",
          "type": "uint256"
        }
      ],
      "name": "RequestRaffleWinner",
      "type": "event"
    },
    {
      "anonymous": false,
      "inputs": [
        {
          "indexed": true,
          "internalType": "address",
          "name": "winner",
          "type": "address"
        }
      ],
      "name": "WinnerPicked",
      "type": "event"
    },
    {
      "inputs": [
        {
          "internalType": "bytes",
          "name": "",
          "type": "bytes"
        }
      ],
      "name": "checkUpkeep",
      "outputs": [
        {
          "internalType": "bool",
          "name": "upkeepNeeded",
          "type": "bool"
        },
        {
          "internalType": "bytes",
          "name": "",
          "type": "bytes"
        }
      ],
      "stateMutability": "view",
      "type": "function"
    },
    {
      "inputs": [],
      "name": "enterRaffle",
      "outputs": [],
      "stateMutability": "payable",
      "type": "function"
    },
    {
      "inputs": [],
      "name": "getEntranceFee",
      "outputs": [
        {
          "internalType": "uint256",
          "name": "",
          "type": "uint256"
        }
      ],
      "stateMutability": "view",
      "type": "function"
    },
    {
      "inputs": [],
      "name": "getInterval",
      "outputs": [
        {
          "internalType": "uint256",
          "name": "",
          "type": "uint256"
        }
      ],
      "stateMutability": "view",
      "type": "function"
    },
    {
      "inputs": [],
      "name": "getNumbers",
      "outputs": [
        {
          "internalType": "uint256",
          "name": "",
          "type": "uint256"
        }
      ],
      "stateMutability": "pure",
      "type": "function"
    },
    {
      "inputs": [
        {
          "internalType": "uint256",
          "name": "index",
          "type": "uint256"
        }
      ],
      "name": "getPlayer",
      "outputs": [
        {
          "internalType": "address",
          "name": "",
          "type": "address"
        }
      ],
      "stateMutability": "view",
      "type": "function"
    },
    {
      "inputs": [],
      "name": "getRaffleState",
      "outputs": [
        {
          "internalType": "enum Raffle.RaffleState",
          "name": "",
          "type": "uint8"
        }
      ],
      "stateMutability": "view",
      "type": "function"
    },
    {
      "inputs": [],
      "name": "getRecentWinner",
      "outputs": [
        {
          "internalType": "address",
          "name": "",
          "type": "address"
        }
      ],
      "stateMutability": "view",
      "type": "function"
    },
    {
      "inputs": [
        {
          "internalType": "bytes",
          "name": "",
          "type": "bytes"
        }
      ],
      "name": "performUpkeep",
      "outputs": [],
      "stateMutability": "nonpayable",
      "type": "function"
    },
    {
      "inputs": [
        {
          "internalType": "uint256",
          "name": "requestId",
          "type": "uint256"
        },
        {
          "internalType": "uint256[]",
          "name": "randomWords",
          "type": "uint256[]"
        }
      ],
      "name": "rawFulfillRandomWords",
      "outputs": [],
      "stateMutability": "nonpayable",
      "type": "function"
    }
  ],
  "bytecode": "0x6101606040523480156200001257600080fd5b5060405162001861380380620018618339818101604052810190620000389190620001cd565b858073ffffffffffffffffffffffffffffffffffffffff1660808173ffffffffffffffffffffffffffffffffffffffff1660601b81525050508460a081815250508573ffffffffffffffffffffffffffffffffffffffff1660c08173ffffffffffffffffffffffffffffffffffffffff1660601b815250508360e081815250508267ffffffffffffffff166101008167ffffffffffffffff1660c01b815250508161ffff166101208161ffff1660f01b815250506000600160146101000a81548160ff0219169083600181111562000139577f4e487b7100000000000000000000000000000000000000000000000000000000600052602160045260246000fd5b0217905550426002819055508061014081815250505050505050506200034f565b6000815190506200016b81620002cd565b92915050565b6000815190506200018281620002e7565b92915050565b600081519050620001998162000301565b92915050565b600081519050620001b0816200031b565b92915050565b600081519050620001c78162000335565b92915050565b60008060008060008060c08789031215620001e757600080fd5b6000620001f789828a016200015a565b96505060206200020a89828a016200019f565b95505060406200021d89828a0162000171565b94505060606200023089828a01620001b6565b93505060806200024389828a0162000188565b92505060a06200025689828a016200019f565b9150509295509295509295565b600062000270826200028f565b9050919050565b6000819050919050565b600061ffff82169050919050565b600073ffffffffffffffffffffffffffffffffffffffff82169050919050565b6000819050919050565b600067ffffffffffffffff82169050919050565b620002d88162000263565b8114620002e457600080fd5b50565b620002f28162000277565b8114620002fe57600080fd5b50565b6200030c8162000281565b81146200031857600080fd5b50565b6200032681620002af565b81146200033257600080fd5b50565b6200034081620002b9565b81146200034c57600080fd5b50565b60805160601c60a05160c05160601c60e0516101005160c01c6101205160f01c61014051611496620003cb60003960008181610802015261087d015260006106810152600061065e0152600061063d01526000610601015260008181610248015261034501526000818161028501526102d901526114966000f3fe6080604052600436106100915760003560e01c8063473f1ddc11610059578063473f1ddc146101485780636e04ff0d1461017357806389f915f6146101b157806391ad27b4146101dc578063e55ae4e81461020757610091565b806309bc33a714610096578063115cbaf5146100c15780631fe543e3146100ec5780632cfcc539146101155780634585e33b1461011f575b600080fd5b3480156100a257600080fd5b506100ab610244565b6040516100b891906110e7565b60405180910390f35b3480156100cd57600080fd5b506100d661026c565b6040516100e391906110cc565b60405180910390f35b3480156100f857600080fd5b50610113600480360381019061010e9190610ec8565b610283565b005b61011d610343565b005b34801561012b57600080fd5b5061014660048036038101906101419190610df0565b6104fe565b005b34801561015457600080fd5b5061015d610749565b60405161016a9190611005565b60405180910390f35b34801561017f57600080fd5b5061019a60048036038101906101959190610e35565b610773565b6040516101a8929190611049565b60405180910390f35b3480156101bd57600080fd5b506101c661086c565b6040516101d391906110e7565b60405180910390f35b3480156101e857600080fd5b506101f1610879565b6040516101fe91906110e7565b60405180910390f35b34801561021357600080fd5b5061022e60048036038101906102299190610e76565b6108a1565b60405161023b9190611005565b60405180910390f35b60007f0000000000000000000000000000000000000000000000000000000000000000905090565b6000600160149054906101000a900460ff16905090565b7f000000000000000000000000000000000000000000000000000000000000000073ffffffffffffffffffffffffffffffffffffffff163373ffffffffffffffffffffffffffffffffffffffff161461033557337f00000000000000000000000000000000000000000000000000000000000000006040517f1cf993f400000000000000000000000000000000000000000000000000000000815260040161032c929190611020565b60405180910390fd5b61033f828261090e565b5050565b7f000000000000000000000000000000000000000000000000000000000000000034101561039d576040517f74938f2700000000000000000000000000000000000000000000000000000000815260040160405180910390fd5b600060018111156103d7577f4e487b7100000000000000000000000000000000000000000000000000000000600052602160045260246000fd5b600160149054906101000a900460ff16600181111561041f577f4e487b7100000000000000000000000000000000000000000000000000000000600052602160045260246000fd5b14610456576040517fd6e19a8d00000000000000000000000000000000000000000000000000000000815260040160405180910390fd5b6000339080600181540180825580915050600190039060005260206000200160009091909190916101000a81548173ffffffffffffffffffffffffffffffffffffffff021916908373ffffffffffffffffffffffffffffffffffffffff1602179055503373ffffffffffffffffffffffffffffffffffffffff167f0805e1d667bddb8a95f0f09880cf94f403fb596ce79928d9f29b74203ba284d460405160405180910390a2565b600061051860405180602001604052806000815250610773565b509050806105ad5747600080549050600160149054906101000a900460ff16600181111561056f577f4e487b7100000000000000000000000000000000000000000000000000000000600052602160045260246000fd5b6040517fc61de3e10000000000000000000000000000000000000000000000000000000081526004016105a493929190611102565b60405180910390fd5b60018060146101000a81548160ff021916908360018111156105f8577f4e487b7100000000000000000000000000000000000000000000000000000000600052602160045260246000fd5b021790555060007f000000000000000000000000000000000000000000000000000000000000000073ffffffffffffffffffffffffffffffffffffffff16635d3b1d307f00000000000000000000000000000000000000000000000000000000000000007f000000000000000000000000000000000000000000000000000000000000000060037f000000000000000000000000000000000000000000000000000000000000000060016040518663ffffffff1660e01b81526004016106c2959493929190611079565b602060405180830381600087803b1580156106dc57600080fd5b505af11580156106f0573d6000803e3d6000fd5b505050506040513d601f19601f820116820180604052508101906107149190610e9f565b9050807fde6349b018d6c03d837b67d9a198a6ba4842546f2295fe963fae141e5dbaef8160405160405180910390a250505050565b6000600160009054906101000a900473ffffffffffffffffffffffffffffffffffffffff16905090565b600060606000600160149054906101000a900460ff1660018111156107c1577f4e487b7100000000000000000000000000000000000000000000000000000000600052602160045260246000fd5b600060018111156107fb577f4e487b7100000000000000000000000000000000000000000000000000000000600052602160045260246000fd5b14905060007f00000000000000000000000000000000000000000000000000000000000000006002544261082f91906111e2565b1190506000806000805490501190506000804711905083801561084f5750825b80156108585750805b80156108615750815b955050505050915091565b6000600161ffff16905090565b60007f0000000000000000000000000000000000000000000000000000000000000000905090565b60008082815481106108dc577f4e487b7100000000000000000000000000000000000000000000000000000000600052603260045260246000fd5b9060005260206000200160009054906101000a900473ffffffffffffffffffffffffffffffffffffffff169050919050565b600080805490508260008151811061094f577f4e487b7100000000000000000000000000000000000000000000000000000000600052603260045260246000fd5b60200260200101516109619190611334565b9050600080828154811061099e577f4e487b7100000000000000000000000000000000000000000000000000000000600052603260045260246000fd5b9060005260206000200160009054906101000a900473ffffffffffffffffffffffffffffffffffffffff16905080600160006101000a81548173ffffffffffffffffffffffffffffffffffffffff021916908373ffffffffffffffffffffffffffffffffffffffff16021790555060008173ffffffffffffffffffffffffffffffffffffffff1647604051610a3290610ff0565b60006040518083038185875af1925050503d8060008114610a6f576040519150601f19603f3d011682016040523d82523d6000602084013e610a74565b606091505b5050905080610aaf576040517fba31c4f300000000000000000000000000000000000000000000000000000000815260040160405180910390fd5b8173ffffffffffffffffffffffffffffffffffffffff167f5b690ec4a06fe979403046eaeea5b3ce38524683c3001f662c8b5a829632f7df60405160405180910390a26000600160146101000a81548160ff02191690836001811115610b3e577f4e487b7100000000000000000000000000000000000000000000000000000000600052602160045260246000fd5b0217905550600067ffffffffffffffff811115610b84577f4e487b7100000000000000000000000000000000000000000000000000000000600052604160045260246000fd5b604051908082528060200260200182016040528015610bb25781602001602082028036833780820191505090505b5060009080519060200190610bc8929190610bd7565b50426002819055505050505050565b828054828255906000526020600020908101928215610c50579160200282015b82811115610c4f5782518260006101000a81548173ffffffffffffffffffffffffffffffffffffffff021916908373ffffffffffffffffffffffffffffffffffffffff16021790555091602001919060010190610bf7565b5b509050610c5d9190610c61565b5090565b5b80821115610c7a576000816000905550600101610c62565b5090565b6000610c91610c8c8461115e565b611139565b90508083825260208201905082856020860282011115610cb057600080fd5b60005b85811015610ce05781610cc68882610dc6565b845260208401935060208301925050600181019050610cb3565b5050509392505050565b6000610cfd610cf88461118a565b611139565b905082815260208101848484011115610d1557600080fd5b610d208482856112c1565b509392505050565b600082601f830112610d3957600080fd5b8135610d49848260208601610c7e565b91505092915050565b60008083601f840112610d6457600080fd5b8235905067ffffffffffffffff811115610d7d57600080fd5b602083019150836001820283011115610d9557600080fd5b9250929050565b600082601f830112610dad57600080fd5b8135610dbd848260208601610cea565b91505092915050565b600081359050610dd581611449565b92915050565b600081519050610dea81611449565b92915050565b60008060208385031215610e0357600080fd5b600083013567ffffffffffffffff811115610e1d57600080fd5b610e2985828601610d52565b92509250509250929050565b600060208284031215610e4757600080fd5b600082013567ffffffffffffffff811115610e6157600080fd5b610e6d84828501610d9c565b91505092915050565b600060208284031215610e8857600080fd5b6000610e9684828501610dc6565b91505092915050565b600060208284031215610eb157600080fd5b6000610ebf84828501610ddb565b91505092915050565b60008060408385031215610edb57600080fd5b6000610ee985828601610dc6565b925050602083013567ffffffffffffffff811115610f0657600080fd5b610f1285828601610d28565b9150509250929050565b610f2581611216565b82525050565b610f3481611228565b82525050565b610f4381611234565b82525050565b6000610f54826111bb565b610f5e81856111c6565b9350610f6e8185602086016112d0565b610f7781611421565b840191505092915050565b610f8b8161129d565b82525050565b6000610f9e6000836111d7565b9150610fa982611432565b600082019050919050565b610fbd81611251565b82525050565b610fcc816112af565b82525050565b610fdb8161127f565b82525050565b610fea81611289565b82525050565b6000610ffb82610f91565b9150819050919050565b600060208201905061101a6000830184610f1c565b92915050565b60006040820190506110356000830185610f1c565b6110426020830184610f1c565b9392505050565b600060408201905061105e6000830185610f2b565b81810360208301526110708184610f49565b90509392505050565b600060a08201905061108e6000830188610f3a565b61109b6020830187610fe1565b6110a86040830186610fb4565b6110b56060830185610fc3565b6110c26080830184610fc3565b9695505050505050565b60006020820190506110e16000830184610f82565b92915050565b60006020820190506110fc6000830184610fd2565b92915050565b60006060820190506111176000830186610fd2565b6111246020830185610fd2565b6111316040830184610fd2565b949350505050565b6000611143611154565b905061114f8282611303565b919050565b6000604051905090565b600067ffffffffffffffff821115611179576111786113f2565b5b602082029050602081019050919050565b600067ffffffffffffffff8211156111a5576111a46113f2565b5b6111ae82611421565b9050602081019050919050565b600081519050919050565b600082825260208201905092915050565b600081905092915050565b60006111ed8261127f565b91506111f88361127f565b92508282101561120b5761120a611365565b5b828203905092915050565b60006112218261125f565b9050919050565b60008115159050919050565b6000819050919050565b600081905061124c82611435565b919050565b600061ffff82169050919050565b600073ffffffffffffffffffffffffffffffffffffffff82169050919050565b6000819050919050565b600067ffffffffffffffff82169050919050565b60006112a88261123e565b9050919050565b60006112ba82611251565b9050919050565b82818337600083830152505050565b60005b838110156112ee5780820151818401526020810190506112d3565b838111156112fd576000848401525b50505050565b61130c82611421565b810181811067ffffffffffffffff8211171561132b5761132a6113f2565b5b80604052505050565b600061133f8261127f565b915061134a8361127f565b92508261135a57611359611394565b5b828206905092915050565b7f4e487b7100000000000000000000000000000000000000000000000000000000600052601160045260246000fd5b7f4e487b7100000000000000000000000000000000000000000000000000000000600052601260045260246000fd5b7f4e487b7100000000000000000000000000000000000000000000000000000000600052602160045260246000fd5b7f4e487b7100000000000000000000000000000000000000000000000000000000600052604160045260246000fd5b6000601f19601f8301169050919050565b50565b60028110611446576114456113c3565b5b50565b6114528161127f565b811461145d57600080fd5b5056fea2646970667358221220c65eec3bebb6ae115161e6b43860f7e5f67c32e8c2c64a0c4e9d08a9fe2fed8164736f6c63430008040033",
  "linkReferences": {},
  "deployedLinkReferences": {}
}